:020000040000FA
:020000000129D4
:08000800A0000308831203139A
:10001000A1000408A2000A08A3008A118316031392
:100020000C1C1628831203130C1855288B1E1A2833
:100030000B194C280B1E1E288B18DC288316031363
:100040000C1E2628831203130C1A34288B1D2A2811
:100050000B186F288312031323088A0022088400D8
:10006000210883002008090083120313310884004B
:10007000000899000408513C031D402831308400D9
:10008000840A0408B1000C1204083002031D4B2836
:10009000831603130C122A28831203130B1120302A
:1000A0008706AC0B54288B122A28831203130715DA
:1000B000071110100B308E0086308F001014E413DF
:1000C000641DE4176414E4106411651C69282B3066
:1000D00099008B100B16831203130C102A2883121D
:1000E00003130608A5000B10251E8428241A842853
:1000F0001030AD062D1E8028871007142D16842879
:10010000871407102D128428A51EA928A41AA9282F
:10011000AD0A03302D05031D8F280430AD062D1CBC
:100120009828AD1CA428051485142D14AD14A928F5
:10013000AD1C9F28051085142D10AD14A92805109D
:1001400085102D10AD10A928051485102D14AD10A3
:10015000A928251FCF28241BCF280430AD070C3039
:100160002D05031DB5280130AD062D1DBE28AD1D82
:10017000CA28051585152D15AD15CF28AD1DC52827
:10018000051185152D11AD15CF28051185112D11DE
:10019000AD11CF28051585112D15AD11CF28A51F3F
:1001A000D828A41BD8281030E5060430E506D82846
:1001B0002508A400AD082A28831203136419FF2818
:1001C000E418F028831203138715871110100E0806
:1001D000FF3AAB000F08FF3AAA001014E414FF28FE
:1001E0008715871110100E08FF3AAB02031CAA03F3
:1001F0000F08FF3AAA021014641564100B128B103A
:100200002A288A1183120313FF30850083160313F3
:10021000F030850083120313FF308600831603132A
:10022000FF30860083120313C23087008316031346
:100230008030870083160313083081008316031370
:1002400006309F00831603130C309900181298167D
:1002500018158312031398178316031307309C0095
:10026000831203130B308E0086308F0010140C1095
:10027000AD013230B000B100831603130C148312A9
:1002800003130608A500A4000B108B158B100B168A
:100290000B178B17831203130430E5000430AE00F4
:1002A00083120313E401D401D501D601D7018A11C9
:1002B00074238A1187258A15D5208A150A208A1564
:1002C000EA218A11831203132A08A600A8002B082A
:1002D000A700A900E416DA01E0018A15EA218A11D3
:1002E00083120313FF302A020319902A59082D02A2
:1002F0008A15031DD5208A11831603130C1A7C2935
:1003000083120313E51C9229831203132A08831610
:100310000313BB00831203132B0883160313BA00C5
:100320008A112E238A1183120313DA0A0319902AE1
:10033000E5122A082602031CA329031DAC292B0859
:1003400027020318AC292A08A6002B08A7005A0880
:10035000DD00E41EE517E416E41E0C2A651F3D2AA5
:100360002808E6002908E7005D08DA026513E516AB
:1003700083120313680883160313B3008312031355
:10038000690883160313B2008312031366088316E9
:100390000313B70083120313670883160313B60011
:1003A0008A1500208A1183160313B101B00183124C
:1003B0000313680883160313B50083120313690837
:1003C00083160313B400B701B6018A1530228A11CF
:1003D000831203132D1EF929831603133108831288
:1003E0000313D40083160313300883120313D500BC
:1003F000052A83160313310883120313D6008316CC
:100400000313300883120313D7008A1583120313D2
:10041000651A64248A113D2A831203132608831661
:100420000313B30083120313270883160313B200C8
:1004300083120313280883160313B70083120313D0
:10044000290883160313B6008A1500208A11831227
:1004500003132E0883160313B600B7018A15122260
:100460008A11320883120313A702031CA603831602
:100470000313330883120313A602831203132A08FB
:100480002802031C522A031D4B2A2B082902031C95
:10049000522A0319522A2A08A8002B08A900E41A94
:1004A0006517E4128A1183120313E41A5A2AE51B12
:1004B0008A2A942A260883160313B300831203138F
:1004C000270883160313B200831203132808831628
:1004D0000313B70083120313290883160313B6000E
:1004E0008A1500208A11831203132E088316031322
:1004F000B600B7018A1512228A113208831203133B
:10050000A9070318A80A83160313330883120313D9
:10051000A807942A2608E8002708E900E513942A8A
:100520008A15FE238A115729831203138A15E519A8
:10053000E7248A11E51AA522831203138A113008D1
:100540003102031D63238A116D298A11831203135B
:100550000C305D02031CBB2A30305D020318B42A44
:100560008A150F228A11C12A831203132E0CAE0C96
:100570005F08DD00C12A831203132E0DAE0D5F0844
:10058000DD008A11C9228A158312031365193D24DF
:1005900008008A1183120313600803192C2B013001
:1005A0006002031DD62A5D08DF002C2B831603137F
:1005B000B301B20183120313600883160313B6005C
:1005C000B603831203135F0883160313B2070318DD
:1005D000B30AB60BE12A831203135D0883160313D3
:1005E000B2070318B30A330883120313D200831629
:1005F0000313320883120313D30060088316031316
:10060000B600B7018A1512228A1132088312031329
:10061000DF0008306002031D2C2B520883160313E1
:10062000B70083120313530883160313B6003C303C
:10063000B300B2018A1512228A1132088312031301
:10064000D30083160313BB1F282B83120313D30A73
:1006500083120313D2012D2BE00A08008A118312A2
:10066000031330088400831603132730B7001030BB
:10067000B6008A15FD218A110330B700E830B600B4
:100680008A15FD218A110030B7006430B6008A1542
:10069000FD218A110030B7000A30B6008A15FD210D
:1006A0008A113A08303E80008A15A9238A11840AEB
:1006B0002C3080008A15A9238A11840A0408831229
:1006C0000313B00008008A1183120313300884005A
:1006D0000D3080008A15A9238A11840A0408B0000D
:1006E000831603130C1608008A15B1238A1183128E
:1006F000031305148510051185118A15EA218A1541
:10070000EA218A11831203132A0883160313C000F7
:10071000831203132B0883160313C10083160313DC
:100720000C1A8E2B831203132A0883160313BB00A3
:10073000831203132B0883160313BA008A112E2386
:100740008A1163238A11831203130514851005157A
:1007500085158A15EA218A15EA218A118312031365
:100760002A0883160313C200831203132B0883166F
:100770000313C300831603130C1ABA2B831203133B
:100780002A0883160313BB00831203132B08831656
:100790000313BA008A112E238A1163238A1183124C
:1007A000031305148510051185158A15EA218A158C
:1007B000EA218A11831203132A0883160313C40043
:1007C000831203132B0883160313C5008316031328
:1007D0000C1AE62B831203132A0883160313BB009B
:1007E000831203132B0883160313BA008A112E23D6
:1007F0008A1163238A1183120313051485100515CA
:1008000085158A15EA218A15EA218A1183120313B4
:100810002A0883160313C600831203132B088316BA
:100820000313C700831603130C1A122C831203132D
:100830002A0883160313BB00831203132B088316A5
:100840000313BA008A112E238A1163238A1183129B
:10085000031305108514051185118A15EA218A15DF
:10086000EA218A11831203132A0883160313C8008E
:10087000831203132B0883160313C9008316031373
:100880000C1A3E2C831203132A0883160313BB0091
:10089000831203132B0883160313BA008A112E2325
:1008A0008A1163238A118312031305108514051519
:1008B00085118A15EA218A15EA218A118312031308
:1008C0002A0883160313CA00831203132B08831606
:1008D0000313CB00831603130C1A6A2C8312031321
:1008E0002A0883160313BB00831203132B088316F5
:1008F0000313BA008A112E238A1163238A118312EB
:10090000031305108514051185158A15EA218A152A
:10091000EA218A11831203132A0883160313CC00D9
:10092000831203132B0883160313CD0083160313BE
:100930000C1A962C831203132A0883160313BB0088
:10094000831203132B0883160313BA008A112E2374
:100950008A1163238A118312031305108514051568
:1009600085158A15EA218A15EA218A118312031353
:100970002A0883160313CE00831203132B08831651
:100980000313CF00831603130C1AC22C8312031314
:100990002A0883160313BB00831203132B08831644
:1009A0000313BA008A112E238A1163238A1183123A
:1009B000031305148514051185118A15EA218A157A
:1009C000EA218A11831203132A0883160313D00025
:1009D000831203132B0883160313D100831603130A
:1009E0000C1AEE2C831203132A0883160313BB0080
:1009F000831203132B0883160313BA008A112E23C4
:100A00008A1163238A1183120313051485140515B3
:100A100085118A15EA218A15EA218A1183120313A6
:100A20002A0883160313D200831203132B0883169C
:100A30000313D300831603130C1A1A2D8312031306
:100A40002A0883160313BB00831203132B08831693
:100A50000313BA008A112E238A1163238A11831289
:100A6000031305148514051185158A15EA218A15C5
:100A7000EA218A11831203132A0883160313D40070
:100A8000831203132B0883160313D5008316031355
:100A90000C1A462D831203132A0883160313BB0076
:100AA000831203132B0883160313BA008A112E2313
:100AB0008A1163238A118312031305148514051503
:100AC00085158A15EA218A15EA218A1183120313F2
:100AD0002A0883160313D600831203132B088316E8
:100AE0000313D700831603130C1A722D83120313FA
:100AF0002A0883160313BB00831203132B088316E3
:100B00000313BA008A112E238A11632308008A1165
:100B100083120313FF30E300E4118316031340082C
:100B2000B3004108B2008A1187278A118312031388
:100B3000641EA92D0130E3008316031340088312BD
:100B40000313E10083160313410883120313E20029
:100B5000E415831603134208B3004308B2008A1158
:100B600087278A1183120313641ED02DE41DBF2D25
:100B70008A116D278A1183120313641BD02D05304F
:100B800083120313E3008316031342088312031333
:100B9000E10083160313430883120313E200E415F4
:100BA000831603134408B3004508B2008A1187274F
:100BB0008A1183120313641EF72DE41DE62D8A119A
:100BC0006D278A1183120313641BF72D09308312DA
:100BD0000313E30083160313440883120313E10095
:100BE00083160313450883120313E200E4158316EA
:100BF00003134608B3004708B2008A1187278A11F9
:100C000083120313641E1E2EE41D0D2E8A116D2700
:100C10008A1183120313641B1E2E0D3083120313DB
:100C2000E30083160313460883120313E1008316BF
:100C30000313470883120313E200E415831603131A
:100C40004808B3004908B2008A1187278A11831225
:100C50000313641E452EE41D342E8A116D278A115C
:100C600083120313641B452E023083120313E30027
:100C700083160313480883120313E100831603133A
:100C8000490883120313E200E415831603134A088C
:100C9000B3004B08B2008A1187278A11831203130D
:100CA000641E6C2EE41D5B2E8A116D278A1183123F
:100CB0000313641B6C2E063083120313E3008316A8
:100CC00003134A0883120313E100831603134B082E
:100CD00083120313E200E415831603134C08B300D8
:100CE0004D08B2008A1187278A1183120313641EEC
:100CF000932EE41D822E8A116D278A11831203130D
:100D0000641B932E0A3083120313E300831603132C
:100D10004C0883120313E100831603134D0883125A
:100D20000313E200E415831603134E08B3004F08C3
:100D3000B2008A1187278A1183120313641EBA2E08
:100D4000E41DA92E8A116D278A1183120313641BD7
:100D5000BA2E0E3083120313E300831603134E08DA
:100D600083120313E100831603134F088312031346
:100D7000E200E415831603135008B3005108B200D3
:100D80008A1187278A1183120313641EE12EE41D42
:100D9000D02E8A116D278A1183120313641BE12E52
:100DA000033083120313E3008316031350088312E6
:100DB0000313E10083160313510883120313E200A7
:100DC000E415831603135208B3005308B2008A11C6
:100DD00087278A1183120313641E082FE41DF72E40
:100DE0008A116D278A1183120313641B082F0730A1
:100DF00083120313E30083160313520883120313B1
:100E0000E10083160313530883120313E200E41571
:100E1000831603135408B3005508B2008A118727BC
:100E20008A1183120313641E2F2FE41D1E2F8A11B3
:100E30006D278A1183120313641B2F2F0B3083122B
:100E40000313E30083160313540883120313E10012
:100E500083160313550883120313E200E415831667
:100E600003135608B3005708B2008A1187278A1166
:100E700083120313641E562FE41D452F8A116D271C
:100E80008A1183120313641B562F0F30831203132E
:100E9000E30083160313540883120313E10083163F
:100EA0000313550883120313E200E415E419622FBB
:100EB0008A150F228A11831203130330870600005C
:100EC0008706872D83120313F030AD056308AD0448
:100ED0000508F0396304850008008A1183120313A2
:100EE00064136108831603133302031C832F031D4D
:100EF000862F831203136208831603133202031C26
:100F0000832F031D862F83120313641708008A1191
:100F10008312031364123C30831603133302031C41
:100F20009D2F031DB22F83160313FA30831603136C
:100F30003202031C9D2F031DB22F831203130030B6
:100F4000831603133302031CB22F031DAF2F83122A
:100F500003133C30831603133202031CB22F831297
:060F6000031364160800F3
:101000008A15831603133608B202031CB30337088C
:10101000B30208008A15831603130C1A0B288312D7
:101020000313300884004C3080008A15A9238A15E8
:10103000840A453080008A15A9238A15840A413024
:1010400080008A15A9238A15840A4B3080008A15EE
:10105000A9238A15840A2D3080008A15A9238A15B0
:10106000840A2E18B828AE18AB282E199E28AE195F
:1010700091282E1A7E28AE1A6B282E1B58282F3046
:1010800080008A15A9238A15840A313080008A15C8
:10109000A9238A15840A323080008A15A9238A156B
:1010A000840A383080008A15A9238A15840AC52845
:1010B0002F3080008A15A9238A15840A36308000D3
:1010C0008A15A9238A15840A343080008A15A92339
:1010D0008A15840AC5282F3080008A15A9238A150D
:1010E000840A333080008A15A9238A15840A323095
:1010F00080008A15A9238A15840AC5282F3080000C
:101100008A15A9238A15840A313080008A15A923FB
:101110008A15840A363080008A15A9238A15840A24
:10112000C5282F3080008A15A9238A15840A3830F3
:1011300080008A15A9238A15840AC5282F308000CB
:101140008A15A9238A15840A343080008A15A923B8
:101150008A15840AC5282F3080008A15A9238A158C
:10116000840A323080008A15A9238A15840AC5288A
:101170002F3080008A15A9238A15840A3130800017
:101180008A15A9238A15840AC5280D3080008A157E
:10119000A9238A15840A0408B000831603130C16C9
:1011A000831203132E08AF0008008A158316031359
:1011B0000C1AD62883120313300884004D308000A7
:1011C0008A15A9238A15840A4F3080008A15A9231D
:1011D0008A15840A443080008A15A9238A15840A56
:1011E000453080008A15A9238A15840A2D30800095
:1011F0008A15A9238A15840A2D1E112949308000D9
:101200008A15A9238A15840A523080008A15A923D9
:101210008A15840A2D3080008A15A9238A15840A2C
:101220002A29523080008A15A9238A15840A45305C
:1012300080008A15A9238A15840A443080008A1503
:10124000A9238A15840A2D3080008A15A9238A15BE
:10125000840A2A29AD1C66292D1C4D2931308000B5
:101260008A15A9238A15840A303080008A15A9239B
:101270008A15840A303080008A15A9238A15840AC9
:10128000583080008A15A9238A15840A2D308000E1
:101290008A15A9238A15840A8E29313080008A157F
:1012A000A9238A15840A303080008A15A9238A155B
:1012B000840A583080008A15A9238A15840A2D30A3
:1012C00080008A15A9238A15840A8E292D1C7B2962
:1012D000313080008A15A9238A15840A583080008D
:1012E0008A15A9238A15840A2D3080008A15A9231E
:1012F0008A15840A8E29503080008A15A9238A1500
:10130000840A443080008A15A9238A15840A2D3066
:1013100080008A15A9238A15840A8E29AD1DBE294D
:101320002D1DAB292F3080008A15A9238A15840A28
:10133000313080008A15A9238A15840A3030800054
:101340008A15A9238A15840A303080008A15A923BA
:101350008A15840ADA292F3080008A15A9238A1574
:10136000840A313080008A15A9238A15840A303016
:1013700080008A15A9238A15840ADA292D1DCD2912
:101380002F3080008A15A9238A15840A3230800004
:101390008A15A9238A15840ADA292F3080008A1534
:1013A000A9238A15840A313080008A15A9238A1559
:1013B000840ADA290D3080008A15A9238A15840A47
:1013C0000408B000831603130C16831203132D08B0
:1013D000D90008008A15831203130716E41BF829A5
:1013E00007306405063C031DEE296414071208004B
:1013F000FF30AA00AB00E413F5298A158316031306
:101400003B08B3003A08B2008A1512228A15320846
:10141000303E80008A15A9238A15840A08008A159F
:101420008B1608008A1583160313BB01BA0110300E
:10143000BC00330DBA0DBB0D3608BA023708031CC9
:10144000370FBB0203182B2A3608BA0737080318D0
:10145000370FBB070310B20DB30DBC0B192A0800E0
:101460008A1583160313BB01BA01B901B801DE0165
:10147000330DB80D3408B8023508031C350FB90216
:101480003608031C360FBA023708031C370FBB029D
:101490000301031C0130DE02B30D0730BC00330D25
:1014A000B80DB90DBA0DBB0DDE0D3408331C6A2A18
:1014B000B8023508031C350FB9023608031C360F75
:1014C000BA023708031C370FBB020301031C0130AB
:1014D000DE027B2AB80735080318350FB90736082E
:1014E0000318360FBA0737080318370FBB07030175
:1014F00003180130DE07B30DBC0B4F2A320DB80DB7
:10150000B90DBA0DBB0DDE0D3408331C992AB80293
:101510003508031C350FB9023608031C360FBA0212
:101520003708031C370FBB020301031C0130DE0226
:10153000AA2AB80735080318350FB9073608031863
:10154000360FBA0737080318370FBB070301031814
:101550000130DE07B20D0730BC00320DB80DB90DF9
:10156000BA0DBB0DDE0D3408321CC82AB80235088E
:10157000031C350FB9023608031C360FBA023708B0
:10158000031C370FBB020301031C0130DE02D92A02
:10159000B80735080318350FB90736080318360F92
:1015A000BA0737080318370FBB07030103180130C8
:1015B000DE07B20DBC0BAD2A310DB80DB90DBA0D59
:1015C000BB0DDE0D3408321CF72AB8023508031CA7
:1015D000350FB9023608031C360FBA023708031C50
:1015E000370FBB020301031C0130DE02082BB807D2
:1015F00035080318350FB90736080318360FBA0730
:1016000037080318370FBB07030103180130DE0743
:10161000B10D0730BC00310DB80DB90DBA0DBB0DC1
:10162000DE0D3408311C262BB8023508031C350F9B
:10163000B9023608031C360FBA023708031C370FED
:10164000BB020301031C0130DE02372BB80735084B
:101650000318350FB90736080318360FBA073708CD
:101660000318370FBB07030103180130DE07B10D64
:10167000BC0B0B2B300DB80DB90DBA0DBB0DDE0D2B
:101680003408311C552BB8023508031C350FB9023C
:101690003608031C360FBA023708031C370FBB028B
:1016A0000301031C0130DE02662BB807350803185E
:1016B000350FB90736080318360FBA07370803186D
:1016C000370FBB07030103180130DE07B00D0730E9
:1016D000BC00300DB80DB90DBA0DBB0DDE0D3408D0
:1016E000301C842BB8023508031C350FB9023608AC
:1016F000031C360FBA023708031C370FBB02030165
:10170000031C0130DE02952BB80735080318350F8E
:10171000B90736080318360FBA0737080318370F0A
:10172000BB07030103180130DE07B00DBC0B692BAA
:101730003018A82B3408B80735080318350FB90737
:1017400036080318360FBA0737080318370FBB07D8
:1017500008008A150408513C031DB02B3130840069
:1017600008008A15831603130C1AB22B8312031375
:1017700030088400433080008A15A9238A15840A22
:10178000413080008A15A9238A15840A4C308000D4
:101790008A15A9238A15840A493080008A15A9234D
:1017A0008A15840A423080008A15A9238A15840A82
:1017B000523080008A15A9238A15840A413080009E
:1017C0008A15A9238A15840A543080008A15A92312
:1017D0008A15840A453080008A15A9238A15840A4F
:1017E0000D3080008A15A9238A15840A0408831203
:1017F0000313B000831603130C1608008A15831612
:1018000003130C1AFF2B8312031330088400523089
:1018100080008A15A9238A15840A453080008A151C
:10182000A9238A15840A533080008A15A9238A15B2
:10183000840A543080008A15A9238A15840A41300D
:1018400080008A15A9238A15840A523080008A15DF
:10185000A9238A15840A543080008A15A9238A1581
:10186000840A0D3080008A15A9238A15840A040889
:10187000B000831603130C1608008A158312031395
:1018800030088400423080008A15A9238A15840A12
:10189000503080008A15A9238A15840A4D308000B3
:1018A0008A15A9238A15840A040883120313B00039
:1018B00083160313BB018312031353088316031308
:1018C000BA008A112E2308008A1583120313D40844
:1018D000031D712CD508031D712C1030AD068A1123
:1018E000902AD608031D7B2CD708031D7B2C1030B3
:1018F000AD068A11902A560883160313B30083128B
:101900000313570883160313B200B101B001831209
:101910000313540883160313B500831203135508E9
:1019200083160313B400B701B7018A15302283165A
:1019300003133208B3003108B2006630B600B701B5
:101940008A1500208A1583160313B101B0010A30ED
:10195000B400B501B601B7018A1530228A15831685
:101960000313320883120313D80083160313B11F25
:10197000BC2C83120313D80A831203135808643C47
:10198000D800031CE52C580883160313BA00BB01CA
:101990008A1583120313300884004F3080008A15A3
:1019A000A9238A15840A323080008A15A9238A1552
:1019B000840A253080008A15A9238A15840A040820
:1019C00083120313B0008A112E238A150800831294
:1019D0000313260883160313BB008312031327087F
:1019E00083160313BA008A112E238A158312031358
:1019F000280883160313BB008312031329088316D8
:0A1A00000313BA008A112E23080018
:02400E00313F40
:00000001FF
